:1000000000080400000000000409000008090000C6
:10001000240900000C090000100900002409000058
:10002000240900002409000024090000240900001C
:10003000240900002409000024090000240900000C
:1000400024090000240900002409000024090000FC
:1000500024090000240900002409000024090000EC
:1000600024090000240900002409000024090000DC
:1000700024090000240900002409000024090000CC
:1000800024090000240900002409000024090000BC
:1000900024090000240900002409000024090000AC
:1000A000240900002409000024090000240900009C
:1000B000240900002409000024090000240900008C
:1000C000240900002409000024090000240900007C
:1000D000240900002409000024090000240900006C
:1000E000240900002409000024090000240900005C
:1000F000240900002409000024090000240900004C
:10010000240900002409000024090000240900003B
:10011000240900002409000024090000240900002B
:10012000240900002409000024090000240900001B
:10013000240900002409000024090000240900000B
:1001400024090000240900002409000024090000FB
:1001500024090000240900002409000024090000EB
:1001600024090000240900002409000024090000DB
:1001700024090000240900002409000024090000CB
:1001800024090000240900002409000024090000BB
:1001900024090000240900002409000024090000AB
:1001A000240900002409000024090000240900009B
:1001B000240900002409000024090000240900008B
:1001C000240900002409000024090000240900007B
:1001D000240900002409000024090000240900006B
:1001E000240900002409000024090000240900005B
:1001F000240900002409000024090000240900004B
:101000000F8020000E7F24000E01880000000000E9
:10101000000020000000E00002003200000120007B
:101020002002880014000700880007000000E0008C
:1010300003003A00000020000100200002003700F9
:101040000000200001002000810F7000010032002C
:1010500014000700000020000000E0000200320041
:101060000000020000000000F20B0200000000007F
:101070000040DA000000FE004440A90040002000CB
:101080000000E000030032000020200090018800F2
:101090004440A800000006008A1F78008B1F7800DB
:1010A00000000600A1028800800478000000EB0028
:1010B0001F003700E284440054A0B4009905BA0030
:1010C000E284440054A0B4009906BA00E2844400CB
:1010D00054A0B4000006EB00476FDE00FD07B2002D
:1010E000AE018800636CE10003003A00EAFF0700EC
:1010F0000000EB000E003700606CE10008003A00D1
:10110000004DEB000A05E800020039003420EC0035
:101110000AF0A0008B05E900F9FF3E00040037004B
:101120006168E100010032000086EB000B0007005F
:1011300019C7BA001905BA000E04E00003003A000E
:101140000A00E000DBFF3A0000000600FE07B200E4
:10115000AE0288008A047800F5FF37000CD0A300A7
:10116000E20F4D001C00390089027800354DBA00AD
:101170000A05E800020039003420EC000AF0A00063
:101180008B05E9000F003200254DBA000A05E80082
:10119000020039003420EC000AF0A0008B05E900C1
:1011A000080032000C00E0000600320015CDBA0045
:1011B0000A05E800020039003420EC000AF0A00023
:1011C0008B05E9008984E80054A0B4000B00E0001E
:1011D000E2FF3A00000006009902BA00055D7800BF
:1011E0008B05E900F7FF3200C82ADE00055D7800B4
:1011F0008B05E900F3FF32000C00E000F1FF320044
:1012000019DDBA00EEFF37008020A900FFFF37008C
:101210008060A900FFFF37008040A900FFFF370072
:101220008080A900FFFF37008020A900FFFF370062
:101230008060A900FFFF37008040A900FFFF370052
:101240008080A900FFFF3700FFFF37000000050086
:101250008184000080800000203B880000802F00F7
:1012600000816000123B880030002400003B8800B1
:101270000600FC0050052000303B8800A00A20003A
:10128000303B880061E7A80000000000000000007B
:1012900000000600A30F2000A30288008001EB00DD
:1012A00006082000124290004822DD009282FB00D6
:1012B000050242008409BB00224290000482FB0028
:1012C0008489BB008381E80063014100868F51005F
:1012D000F4FF3A00203B8800113B880020002400E6
:1012E000003B88000600FC0050052000303B8800D1
:1012F000A00A2000303B880061E7A8000000000041
:101300000000000001002800023B80000280600015
:10131000FDFF3A00000006000001EB000201D300CF
:10132000B081FB00030141008100E900FBFF3A00AE
:101330000200780000000600F28747008E1F780048
:1013400072805700060009000018EB000058EB00FF
:10135000A402800000082000A00288000060210094
:1013600072875700A36021009080BA00014F780077
:101370009000BA004809DE00124798002147980003
:10138000630747000080E800830F5000F6FF3A0033
:10139000A4028800F100200072805700DEFF0700E1
:1013A0004F0778002F01B100000006006426EF000F
:1013B00030002000103388006A26EF007826EF0006
:1013C00000EE2100B03388007E26EF007D86A80065
:1013D00000F82F00DC07B6007000B300E03E880084
:1013E00000FC2F00C23D8000820060007100B3004D
:1013F000C13D8800F20F2C00C13D80000101610059
:101400000190200082807000C13D8800D23D8000A4
:1014100082006000B101B300D13D8800C207B60070
:10142000C000B300103E8800F10F2800703F80001C
:101430008080600000D0210001007000703F8800B3
:101440006824EF002000200060238800E0002000D6
:1014500030238800200A280020238800000820006C
:10146000A01F880000402100B01F8800000220005B
:10147000B01F88004023210060208800F5E3A80009
:10148000000006007786A90040002000010020002F
:10149000F30007007786A80000000600AF18B00030
:1014A000889FBE008A9FBE008C9FBE008E1F780062
:1014B000A1FF070080BF9F00080028008001EB000B
:1014C00059498400090678008906780009077800E0
:1014D000E38F51005D00320004003E00E18F5100B7
:1014E0004B00320051003E000D003700E58F5100E7
:1014F000060032005D003900E68F5100A400320082
:10150000E78F5100F2FF3A00AF003700C2E62F002C
:101510000F014100F2815700010220008C003700CA
:10152000FCA3AB00EAFF3A00012080004205200046
:10153000828F500008003A00F5E3A900404984007A
:10154000A01F88000820880008002800CDFF0700A1
:1015500073002000DEFF3700220C2000828F500035
:1015600006003A00F5E3A90041498400A11F880064
:10157000C4FF070053002000D5FF3700B20C200045
:10158000828F500006003A00F5E3A9004449840028
:10159000A41F8800BBFF070033002000CCFF3700EA
:1015A00082072000828F500006003A00F5E3A90070
:1015B00045498400A51F8800B2FF07006300200092
:1015C000C3FF3700EF8F500008003A00F5E3A90091
:1015D00040498400A01F88008FB897000120880030
:1015E000A8FF070013002000B9FF370022092000E0
:1015F000828F5000B6FF3A00F5E3A9004449840009
:10160000A41F88009FFF070023002000B0FF3700C1
:10161000FCA3AB00AEFF3A0000208000F5E3A90078
:10162000AE1F88008001EB00A9FF3700FCA3AB00D0
:10163000A7FF3A0000208000F5E3A9005549840087
:10164000A51F88008001EB00A1FF3700FCA3AB00C1
:101650009FFF3A00002080008000EB00D0379E0002
:10166000E1379E004300200099FF3700FCA3AB0048
:1016700097FF3A000A2080008005EB00C055DD008E
:101680000A0020005F309600EF3096000A05400007
:101690008B854800F0FF20000B0060008000EB000D
:1016A000C001DD00020020006150B800000271009E
:1016B00081827100D4379E00E5379E0041002000F2
:1016C000A0E62F000F00400013FF07006F0160002D
:1016D0004C58DE0001002000800F510010003A003D
:1016E000485DDE006F406500EA4F500004003A009C
:1016F00000FA20000100200059000700090037000F
:10170000EE4F500004003A00004C2D001100200064
:1017100053000700030037000820A0000100370035
:101720000800A000F5E3A900AC1F88008001EB00D1
:1017300067FF3700E51F800005806000FDFF3A006D
:101740000020800000297800830F5100040032003F
:10175000E41F800004806000F6FF3A00F8FF3700C5
:1017600001182000E0E62F000F004000EAFE07000D
:10177000FFB09700810F5000010032000810A00058
:10178000F5E3A900A91F88008001EB0050FF370096
:10179000FCA3AB004EFF3A000FB897000004E30033
:1017A0000400320000300200000000000000FE00D3
:1017B00047FF3700F5E3A90051498400A11F8800C5
:1017C0008001EB0042FF3700FCA3AB0040FF3A0072
:1017D00000208000F5E3A900AD1F88008001EB0028
:1017E0003BFF370004000700F0FE07002BFF070057
:1017F00010002000000006000002230010088800EE
:101800000621EF006821EF006A21EF000821EF00B8
:1018100000702000500888000C21EF000E21EF001E
:1018200010002000A20920008107200013102000D2
:10183000814978008249780080497800720520004B
:10184000610420000310200081497800824978005B
:10185000804978000001AB00FEFF3A00000006005E
:10186000F03FB1000180B10006003500EE03090031
:1018700000000000403FB1000180B100FBFF3D00CF
:101880001000B000203FB0000200350000800900C9
:0818900000000000000006004A
:04600000FFFF370067
:020000040005F5
:045E0000FF7F000020
:045E2000FFFFFF0081
:045E300088FFFF00E8
:045E380043FFFF0025
:045E40009FFFFF00C1
:045E4800FFFFFF0059
:045E5000DEFFFF0072
:045E5800FFFFFF0049
:00000001FF
